:060000000A128A11122809
:10000800FE00030EF2000408F3000A08F40083124D
:1000180003137F08F5000A128A11B02E0A128A11FA
:100028001528F601F701F801F901E801E901EA01EB
:10003800EB01EC01ED01EE01EF0183160313A001C2
:10004800A101A201A301A401A501A601A701A8017C
:10005800A90183010A128A11312883120313DE01D0
:10006800DE0A8501860187018801FF3083160313A4
:1000780085000730860080308700880183160317C3
:100088008901013083160313950016109610161572
:10009800961116129612161396138B15811281114A
:1000A8000115811401148B168312031381018B1718
:1000B8000B170A128A1111260A128A110A128A11BA
:1000C80038270A128A110A128A11FC260A128A1182
:1000D8000A128A1186270A128A1117300A128A11FF
:1000E800D5250A128A110B300A128A1148270A12DA
:1000F8008A111C300A128A11D5250A128A11EB2995
:100108000A128A117B270A128A1110300A128A11E0
:10011800D5250A128A1183120313061CED288312AF
:100128000313E601E701DC01DD010A128A11AA279F
:100138000A128A1183120313DF010A305F020318BF
:10014800BC280A128A117E260A128A118312031306
:1001580066082007E60067080318670A2107E70012
:100168000130DA005A08DF070A305F02031CA528AD
:100178000A30A0000030A1006708A3006608A200AA
:100188000A128A115A250A128A11831203132108A6
:10019800E7002008E6006708DB006608DA000310BD
:1001A800DB0CDA0C5A08E6005B08E70005300A1297
:1001B8008A1148270A128A11831203136708A900B3
:1001C8006608A80003300A128A11D8220A128A1176
:1001D8008F280618F829ED280A128A117B270A1297
:1001E8008A1109300A128A11D5250A128A11831236
:1001F8000313061C6229831203136F08E5006E08B7
:10020800E40005300A128A1148270A128A1183125B
:1002180003136508A9006408A8000A128A11202798
:100228000A128A11831203132808AF002908B000A4
:100238002A08B1000C30AC000230AD004330AE00EB
:100248000A128A1105220A128A11831203132C0832
:10025800BF002D08C0002E08C1003330BC00CB30D1
:10026800BD004130BE000A128A11A6230A128A1163
:10027800831203133C08CC003D08CD003E08CE0095
:100288000A128A115E240A128A11831203134D0876
:10029800E5004C08E4006408043EE400650803181F
:1002A800013E003EE5006508A9006408A800033087
:1002B8000A128A11D8220A128A11FB280618F8296C
:1002C80062290A128A117B270A128A1101300A123E
:1002D8008A11D5250A128A1183120313E201E30158
:1002E80083120313061CF829E201E30100306302BC
:1002F8000630031962020318C0290A128A119127CD
:100308000A128A115230831203131A06031D962902
:100318001A08DA00E001E1010030683E84005A085A
:100328008313800052306806031DA8291A08DA00D2
:100338006008683E84005A08831380000130E00793
:100348000318E10A0030E1070030610205300319A3
:100358006002031CB3290430E0000030E1000130E2
:10036800E2070318E30A0030E307003063020630AF
:1003780003196202031C812905300A128A114827D1
:100388000A128A11831203136908DA005A08A100B5
:1003980001300A128A1198250A128A11831203134E
:1003A8006A08DA005A08A10001300A128A11982551
:1003B8000A128A11831203136B08DA005A08A10083
:1003C80001300A128A1198250A128A117429831297
:1003D80003135E08013A03198428033A0319F02825
:1003E800013A03196529F829061CF8290130DA00B1
:1003F8005A08DE0704305E02031CEB29DE01DE0A20
:10040800EB29831203132C08B2002D08B3002E0821
:10041800B4000310330D340DB5003508B6003608A6
:10042800031D1D2A0030AC000030AD000030AE00C6
:1004380008002F08B2003008B3003108B4000310D8
:10044800330D340DB5003508BB003B08031D332AB6
:100458000030AC000030AD000030AE0008003B08B2
:100468007B3EB2003208B6072C08B2002D08B30054
:100478002E08B40010300310B40CB30CB20CFF3EBD
:10048800031D3F2A3208B5003508BB002F08B2000B
:100498003008B3003108B40010300310B40CB30CAA
:1004A800B20CFF3E031D512A3208B5003508BB06C1
:1004B8008030B2003208BB05AD17B017FF30AF056A
:1004C800FF30B0050030B1050030B7000030B8008B
:1004D8000030B9000730B2003208BA002C1C822A5A
:1004E8002F08B707300803110318300A031DB8078F
:1004F800310803110318310A031DB907013003102D
:10050800AE0CAD0CAC0CFF3E031D832A013003106A
:10051800AF0DB00DB10DFF3E031D8B2A0130BA029D
:10052800031D722A0930B2003208BA002C1CAA2A0C
:100538002F08B707300803110318300A031DB8073E
:10054800310803110318310A031DB90701300310DC
:10055800AE0CAD0CAC0CFF3E031DAB2A01300310F2
:10056800B90CB80CB70CFF3E031DB32A0130BA0210
:10057800031D9A2A3708A0003808A1003908A200EC
:100588003608B2003208A3003B08B3003308A400C1
:100598000A128A11EC24831203132008AC002108E4
:1005A800AD002208AE00080083120313B8002E30F5
:1005B8008400A030AA000408AB000A30AC002A0866
:1005C800840083130008AD00AA0A2B0884002D08B4
:1005D8008000AB0AAC0BE32A1030A0002730A10042
:1005E8002908A3002808A2000A128A115A250A120B
:1005F8008A11831203132108B7002008B6001030AF
:10060800A0002730A1002908A3002808A2000A1288
:100618008A114A260A128A11831203132108B50087
:100628002008B400E830A0000330A1003508A3007A
:100638003408A2000A128A114A260A128A11831261
:1006480003132108B3002008B200E830A0000330EB
:10065800A1003508A3003408A2000A128A115A25FD
:100668000A128A11831203132108B5002008B40066
:100678006430A0000030A1003308A3003208A200B3
:100688000A128A114A260A128A11831203132108B0
:10069800B1002008B0006430A0000030A100330889
:1006A800A3003208A2000A128A115A250A128A11D6
:1006B800831203132108B3002008B2000A30A000F7
:1006C8000030A1003108A3003008A2000A128A11E4
:1006D8004A260A128A11831203132108AF00200840
:1006E800AE000A30A0000030A1003108A300300895
:1006F800A2000A128A115A250A128A1183120313B8
:100708002108B1002008B00006303802031C902BE5
:100718000530AA002A08B800380803190800380864
:10072800AA002A07FE3E2E3E840083130008303EAE
:100738000A128A116F270A128A11013083120313D1
:10074800B802902B831203133F08C2004008C3006D
:100758004108C4000310430D440DC5004508CA00F4
:100768004A08031DBE2B0030BC000030BD0000301D
:10077800BE0008003C08C2003D08C3003E08C40093
:100788000310430D440DC5004508CB004B08031D5D
:10079800D42B0030BC000030BD000030BE00080083
:1007A8000030C7000030C8000030C90089304B074E
:1007B800C2004208CA023F08C2004008C3004108FC
:1007C800C40010300310C40CC30CC20CFF3E031D40
:1007D800E62B4208C5004508CB003C08C2003D088E
:1007E800C3003E08C40010300310C40CC30CC20C74
:1007F800FF3E031DF82B4208C5004508CB06803094
:10080800C2004208CB05C017FF30BF05FF30C00546
:100818000030C105BD17FF30BC05FF30BD050030F5
:10082800BE051830C2004208C60001300310C70DCB
:10083800C80DC90DFF3E031D1A2C3E084102031DB9
:100848002B2C3D084002031D2B2C3C083F02031CA7
:10085800382C3C08BF023D08031C3D0FC0023E086F
:10086800031C3E0AC102471401300310BF0DC00D1E
:10087800C10DFF3E031D392C0130C602031D192C82
:100888004708A0004808A1004908A2004A08C20079
:100898004208A3004B08C3004308A4000A128A11A7
:1008A800EC24831203132008BC002108BD00220891
:1008B800BE000800831203134C08D0004D08D10075
:1008C8004E08D2000310510D520DD3005308D90021
:1008D8005908031D782C0030CF000030CE000030BE
:1008E800CD000030CC0008004C08D0004D08D100E5
:1008F8004E08D20017300310D20CD10CD00CFF3E9A
:10090800031D7F2C5008D3005308D400CD17FF30A7
:10091800CC05FF30CD050030CE054C08D5004D087C
:10092800D6004E08D700D8018E30D902D91FBA2C6C
:100938005908803A8F3E0318AA2C0030CF000030A7
:10094800CE000030CD000030CC000800013003108C
:10095800D80CD70CD60CD50CFF3E031DAB2C0130A0
:10096800D0005008D9070319D52CAA2C18305902E1
:10097800031CD22C0030CF000030CE000030CD0058
:100988000030CC0008000130D0000310D50DD60D82
:10099800D70DD80DD00BC92C0130D9025908031D29
:1009A800C72C54080319E32CD509D609D709D80947
:1009B800D50A0319D60A0319D70A0319D80A5808F9
:1009C800CF005708CE005608CD005508CC000800C7
:1009D8008312031323080319F62C22082104200488
:1009E800031D092D0030A0000030A1000030A20036
:1009F80008000130A5002508A30701300310A20C48
:100A0800A10CA00CFF3E031D022DFE302205031988
:100A1800242DFD2C0130A5002508A3070130A007CF
:100A2800003003180130A107003003180130A20775
:100A380001300310A20CA10CA00CFF3E031D1D2DBC
:100A4800FF3022050319372D0E2D02302302031C17
:100A5800392D0130A30201300310A00DA10DA20D04
:100A6800FF3E031D302DA11F292D2318412DFF30D6
:100A7800A0057F30A105FF30A2050310A30C2308B1
:100A8800A500A601A70110300310A50DA60DA70DFE
:100A9800FF3E031D482D2508A0042608A1042708A9
:100AA800A204240803190800A217080083120313DC
:100AB800A601A701200821040319932DA501A50A61
:100AC800A11B722D01300310A00DA10DFF3E031DC7
:100AD800672D0130A4002408A507642D01300310F8
:100AE800A60DA70DFF3E031D732D21082302031D2C
:100AF8007F2D20082202031C882D2008A20221082D
:100B0800031CA303A302261401300310A10CA00C9C
:100B1800FF3E031D892D0130A502031D722D2708F4
:100B2800A1002608A000080083120313A4002408CB
:100B38000A128A1155270A128A11831203132108EF
:100B48000A128A11A4270A128A1101300A128A117C
:100B580062270A128A11073083120313A3007D301B
:100B6800A200A20BB52DA30BB52D00300A128A11D5
:100B780062270A128A110D3083120313A300FB3077
:100B8800A200A20BC52DA30BC52DCA2D00300A1239
:100B98008A1155270A128A1100300A128A11A427CD
:100BA800080083120313A800280884000A128A1177
:100BB800D8260A128A11003A031908002808840066
:100BC8000A128A11D8260A128A110A3A0319F62D2E
:100BD800280884000A128A11D8260A128A110D3AA6
:100BE800031DFC2D0A128A117B270A128A110A2E6C
:100BF80083120313280884000A128A11D8260A12BD
:100C08008A110A128A116F270A128A110130831277
:100C18000313A7002708A807D82D01300A128A1144
:100C280062270A128A11623083120313A600653004
:100C3800A500A50B1D2EA60B1D2E222E38308312C3
:100C48000313A5002508A10000300A128A1198256F
:100C58000A128A11063083120313A5002508A10081
:100C680000300A128A1198250A128A110C30831250
:100C78000313A5002508A10000300A128A1198253F
:100C88000A128A110A128A119B2708008312031379
:100C9800200821040319792EA501A50AA11B602E9D
:100CA80001300310A00DA10DFF3E031D552E01308C
:100CB800A4002408A507522E21082302031D662E2E
:100CC80020082202031C6E2E2008A2022108031C01
:100CD800A303A30201300310A10CA00CFF3E031DC7
:100CE8006F2E0130A502031D602E2308A1002208E3
:100CF800A000080083120313A401A5011F129F116D
:100D08001F110730A3007D30A200A20B892EA30B70
:100D1800892E831203139F149F18902E1E08A20079
:100D2800A3012208A300A2012208A4002308A50009
:100D3800831603131E08831203132407A200250831
:100D48000318250AA3002208A4002308A5002508E3
:100D5800A1002408A00008000B1DB92E0B110030BB
:100D6800F8070318F90A0130F9070B1CCD2E0B10F0
:100D7800061DC22E8101F801F901CD2E0108780760
:100D8800F00079080318790AF1007008EE0071087C
:100D9800EF007508FF0074088A0073088400720E5B
:100DA8008300FE0E7E0E090006308A000408840ABD
:100DB80082070034553441345234543420342034BA
:100DC80020340034503457344D3420342034203407
:100DD800003441346E3461346C346F346734003419
:100DE8004434693473347434003443344D34003437
:100DF80083120313A10183160317871183160313A4
:100E080018121813831203131813831603131815D3
:100E18008130990083120313981718168316031349
:100E28009816831203131A08A0002008A1001A08B4
:100E3800A0002008A1000800831203132808A000BE
:100E48002908A100A2018E30AB002B08A300A40141
:100E58000A128A11EC24831203132008A80021081F
:100E6800A9002208AA000800831203139F171F1362
:100E7800831603170814831603139F179F121F1254
:100E8800831203131F10080083120313A6002608F9
:100E98008038A5002508A10000300A128A1198257B
:100EA800080083120313A000201C5E2F8312031373
:100EB8000616080083120313061208008312031390
:100EC800A000201C6B2F83120313861608008312C0
:100ED80003138612080083120313A6002608A50030
:100EE8002508A10001300A128A1198250800C0308F
:100EF80083120313A5002508A10000300A128A11E5
:100F080098250800023083120313A5002508A100C4
:100F180000300A128A119825080083120313981CBE
:100F2800972F181218168C1E972F1A08080083126C
:100F38000313A101A10A00300A128A11982508009A
:100F480083120313A00020088800080083120313EB
:040F58001F1408005A
:02400E00E2ECE2
:00000001FF
