:060000000A128A11122809
:10000800FE00030EF2000408F3000A08F40083124D
:1000180003137F08F5000A128A11F42B0A128A11B9
:100028001528F601F701F801F90183134D30840012
:100038005F300A128A11F62483010A128A112428D1
:1000480083120313C501C50A85018601870188014A
:10005800FF30831603138500073086008030870041
:10006800880183160317890101308316031395004D
:100078001610961016159611161296121613961338
:100088008B15811281110115811401148B168312AD
:10009800031381018B170B170A128A1155230A12B1
:1000A8008A110A128A118A240A128A110A128A11DA
:1000B80043240A128A110A128A11D8240A128A11B0
:1000C80017300A128A1119230A128A110B300A12E0
:1000D8008A119A240A128A111D300A128A111923C8
:1000E8000A128A11B6290A128A11CD240A128A1113
:1000F80010300A128A1119230A128A118312031363
:10010800061CE02883120313CB01CC01C101C201F4
:100118000A128A1104250A128A1183120313C601CE
:100128000A3046020318AF280A128A11C2230A129B
:100138008A11831203134B082007CB004C080318BD
:100148004C0A2107CC000130BF003F08C6070A301F
:100158004602031C98280A30A6000030A7004C0865
:10016800A9004B08A8000A128A119E220A128A11B5
:10017800831203132708CC002608CB004C08C000C4
:100188004B08BF000310C00CBF0C3F08C10040085B
:10019800C20005300A128A119A240A128A1183129F
:1001A80003134208AF004108AE0003300A128A1157
:1001B800D0210A128A1182280618C329E0280A12B7
:1001C8008A11CD240A128A1109300A128A111923B8
:1001D8000A128A1183120313061C2D298312031392
:1001E8005E08C4005D08C30005300A128A119A240B
:1001F8000A128A11203083120313A6000130A700C7
:100208004408A1004308A0006430A2000030A30005
:100218000A128A1167240A128A1183120313210809
:10022800A9002008A8000A128A119E220A128A111F
:10023800831203132708C4002608C3004408AF002C
:100248004308AE0003300A128A11D0210A128A111B
:10025800EE280618C3292D290A128A11CD240A125C
:100268008A1101300A128A1119230A128A1183127B
:100278000313C901CA0183120313061CC329C90148
:10028800CA0100304A0206300319490203188B29B3
:100298000A128A11E3240A128A11523083120313B4
:1002A8001A06031D61291A08BF00C701C8010030DA
:1002B800573E84003F088313800052305706031DC1
:1002C80073291A08BF004708573E84003F08831364
:1002D80080000130C7070318C80A0030C80700307B
:1002E8004802053003194702031C7E290430C70061
:1002F8000030C8000130C9070318CA0A0030CA070D
:1003080000304A02063003194902031C4C29053003
:100318000A128A119A240A128A118312031358089E
:10032800BF003F08A10001300A128A11DC220A121C
:100338008A11831203135908BF003F08A100013036
:100348000A128A11DC220A128A11831203135A082C
:10035800BF003F08A10001300A128A11DC220A12EC
:100368008A113F29831203134508013A0319772894
:10037800033A0319E328013A03193029C329061C53
:10038800C3290130BF003F08C50704304502031CDC
:10039800B629C501C50AB62983120313BE00343035
:1003A80084004D30B0000408B1000A30B2003008B3
:1003B800840083130008B300B00A310884003308AE
:1003C8008000B10AB20BDB291030A6002730A70045
:1003D8002F08A9002E08A8000A128A119E220A12C4
:1003E8008A11831203132708BD002608BC001030A9
:1003F800A0002730A1002F08A3002E08A2000A128F
:100408008A118E230A128A11831203132108BB0052
:100418002008BA00E830A0000330A1003B08A30080
:100428003A08A2000A128A118E230A128A1183122C
:1004380003132108B9002008B800E830A6000330EB
:10044800A7003B08A9003A08A8000A128A119E22B0
:100458000A128A11831203132708BB002608BA0060
:100468006430A0000030A1003908A3003808A200B9
:100478000A128A118E230A128A1183120313210881
:10048800B7002008B6006430A6000030A70039087D
:10049800A9003808A8000A128A119E220A128A1195
:1004A800831203132708B9002608B8000A30A000F1
:1004B8000030A1003708A3003608A2000A128A11EA
:1004C8008E230A128A11831203132108B50020080B
:1004D800B4000A30A6000030A7003708A900360883
:1004E800A8000A128A119E220A128A118312031383
:1004F8002708B7002608B60006303E02031C882AE3
:100508000530B0003008BE003E08031908003E0858
:10051800B0003007FE3E343E840083130008303EAE
:100528000A128A11C1240A128A1101308312031394
:10053800BE02882A83120313AB01AC0126082704E4
:100548000319D72AAD01AD0AA71BB62A013003103B
:10055800A60DA70DFF3E031DAB2A0130AA002A08ED
:10056800AD07A82A01300310AB0DAC0DFF3E031DEB
:10057800B72A27082902031DC32A26082802031CB4
:10058800CC2A2608A8022708031CA903A9022B14B1
:1005980001300310A70CA60CFF3E031DCD2A013025
:1005A800AD02031DB62A2C08A7002B08A6000800D8
:1005B80083120313A40024080A128A11A7240A121A
:1005C8008A118312031321080A128A11FE240A12BF
:1005D8008A1101300A128A11B4240A128A110730CA
:1005E80083120313A3007D30A200A20BF92AA30BE8
:1005F800F92A00300A128A11B4240A128A110D301D
:1006080083120313A300FB30A200A20B092BA30B38
:10061800092B0E2B00300A128A11A7240A128A11FC
:1006280000300A128A11FE24080083120313A8005E
:10063800280884000A128A111C240A128A11003A16
:1006480003190800280884000A128A111C240A12B7
:100658008A110A3A03193A2B280884000A128A11C7
:100668001C240A128A110D3A031D402B0A128A1102
:10067800CD240A128A114E2B8312031328088400F2
:100688000A128A111C240A128A110A128A11C12418
:100698000A128A11013083120313A7002708A8073A
:1006A8001C2B01300A128A11B4240A128A116230F2
:1006B80083120313A6006530A500A50B612BA60BBA
:1006C800612B662B383083120313A5002508A1007F
:1006D80000300A128A11DC220A128A1106308312AB
:1006E8000313A5002508A10000300A128A11DC2294
:1006F8000A128A110C3083120313A5002508A100E1
:1007080000300A128A11DC220A128A110A128A118E
:10071800ED24080083120313200821040319BD2BBC
:10072800A501A50AA11BA42B01300310A00DA10D42
:10073800FF3E031D992B0130A4002408A507962B22
:1007480021082302031DAA2B20082202031CB22B16
:100758002008A2022108031CA303A30201300310EE
:10076800A10CA00CFF3E031DB32B0130A502031DF5
:10077800A42B2308A1002208A00008008312031359
:10078800A401A5011F129F111F110730A3007D307E
:10079800A200A20BCD2BA30BCD2B831203139F1406
:1007A8009F18D42B1E08A200A3012208A300A201AF
:1007B8002208A4002308A500831603131E08831229
:1007C80003132407A20025080318250AA3002208FA
:1007D800A4002308A5002508A1002408A0000800FB
:1007E8000B1DFD2B0B110030F8070318F90A013017
:1007F800F9070B1C112C0B10061D062C8101F801A2
:10080800F901112C01087807F00079080318790A12
:10081800F1007008DD007108DE007508FF0074083B
:100828008A0073088400720E8300FE0E7E0E090093
:1008380004308A000408840A82070034553441349D
:100848005234543420342034203400345034573453
:100858004D34203420342034003441346E34613433
:100868006C346F346734003444346934733474340A
:100878003A34003469346E34633468340034831293
:100888000313A10183160317871183160313181284
:1008980018138312031318138316031318158130C2
:1008A80099008312031398171816831603139816C2
:1008B800831203131A08A0002008A1001A08A00038
:1008C8002008A100080083120313A401A501201C1D
:1008D800732C2208A4070318A50A2308A5070130CA
:1008E8000310A20DA30DFF3E031D742C013003104D
:1008F800A10CA00CFF3E031D7B2C20082104031D26
:100908006B2C2508A1002408A000080083120313FB
:100918009F171F13831603170814831603139F17B3
:100928009F121F12831203131F1008008312031350
:10093800A60026088038A5002508A10000300A1264
:100948008A11DC22080083120313A000201CB02C9B
:1009580083120313061608008312031306120800F5
:1009680083120313A000201CBD2C831203138616C8
:100978000800831203138612080083120313A600CB
:100988002608A5002508A10001300A128A11DC22D8
:100998000800C03083120313A5002508A100003009
:1009A8000A128A11DC220800023083120313A50000
:1009B8002508A10000300A128A11DC2208008312DF
:1009C8000313981CE92C181218168C1EE92C1A0807
:1009D800080083120313A101A10A00300A128A1128
:1009E800DC22080064008001840A0406031900342C
:1009F8000406F72C83120313A000200888000800BF
:080A0800831203131F14080000
:02400E00E2ECE2
:00000001FF
